{
  "contractName": "Poll",
  "abi": [
    {
      "anonymous": false,
      "inputs": [
        {
          "indexed": false,
          "internalType": "uint256",
          "name": "id",
          "type": "uint256"
        }
      ],
      "name": "PollCreated",
      "type": "event"
    },
    {
      "inputs": [],
      "name": "pollAnswerCount",
      "outputs": [
        {
          "internalType": "uint256",
          "name": "",
          "type": "uint256"
        }
      ],
      "stateMutability": "view",
      "type": "function",
      "constant": true
    },
    {
      "inputs": [
        {
          "internalType": "uint256",
          "name": "",
          "type": "uint256"
        }
      ],
      "name": "pollAnswers",
      "outputs": [
        {
          "internalType": "uint256",
          "name": "id",
          "type": "uint256"
        },
        {
          "internalType": "uint256",
          "name": "pollId",
          "type": "uint256"
        },
        {
          "internalType": "string",
          "name": "answerId",
          "type": "string"
        },
        {
          "internalType": "uint256",
          "name": "createdAt",
          "type": "uint256"
        },
        {
          "internalType": "address",
          "name": "onwer",
          "type": "address"
        }
      ],
      "stateMutability": "view",
      "type": "function",
      "constant": true
    },
    {
      "inputs": [],
      "name": "pollCount",
      "outputs": [
        {
          "internalType": "uint256",
          "name": "",
          "type": "uint256"
        }
      ],
      "stateMutability": "view",
      "type": "function",
      "constant": true
    },
    {
      "inputs": [
        {
          "internalType": "uint256",
          "name": "",
          "type": "uint256"
        }
      ],
      "name": "polls",
      "outputs": [
        {
          "internalType": "uint256",
          "name": "id",
          "type": "uint256"
        },
        {
          "internalType": "string",
          "name": "title",
          "type": "string"
        },
        {
          "internalType": "string",
          "name": "desc",
          "type": "string"
        },
        {
          "internalType": "uint256",
          "name": "createdAt",
          "type": "uint256"
        },
        {
          "internalType": "address",
          "name": "onwer",
          "type": "address"
        }
      ],
      "stateMutability": "view",
      "type": "function",
      "constant": true
    },
    {
      "inputs": [
        {
          "internalType": "address",
          "name": "",
          "type": "address"
        },
        {
          "internalType": "uint256",
          "name": "",
          "type": "uint256"
        }
      ],
      "name": "userAnswerKeys",
      "outputs": [
        {
          "internalType": "uint256",
          "name": "",
          "type": "uint256"
        }
      ],
      "stateMutability": "view",
      "type": "function",
      "constant": true
    },
    {
      "inputs": [
        {
          "internalType": "address",
          "name": "",
          "type": "address"
        },
        {
          "internalType": "uint256",
          "name": "",
          "type": "uint256"
        }
      ],
      "name": "userPollKeys",
      "outputs": [
        {
          "internalType": "uint256",
          "name": "",
          "type": "uint256"
        }
      ],
      "stateMutability": "view",
      "type": "function",
      "constant": true
    },
    {
      "inputs": [
        {
          "internalType": "string",
          "name": "_title",
          "type": "string"
        },
        {
          "internalType": "string",
          "name": "_desc",
          "type": "string"
        },
        {
          "components": [
            {
              "internalType": "string",
              "name": "id",
              "type": "string"
            },
            {
              "internalType": "string",
              "name": "name",
              "type": "string"
            }
          ],
          "internalType": "struct Poll.Answer[]",
          "name": "_answer",
          "type": "tuple[]"
        }
      ],
      "name": "createPoll",
      "outputs": [],
      "stateMutability": "nonpayable",
      "type": "function"
    },
    {
      "inputs": [
        {
          "internalType": "uint256",
          "name": "_pollId",
          "type": "uint256"
        },
        {
          "internalType": "string",
          "name": "_voteId",
          "type": "string"
        }
      ],
      "name": "createVote",
      "outputs": [
        {
          "components": [
            {
              "internalType": "uint256",
              "name": "id",
              "type": "uint256"
            },
            {
              "internalType": "uint256",
              "name": "pollId",
              "type": "uint256"
            },
            {
              "internalType": "string",
              "name": "answerId",
              "type": "string"
            },
            {
              "internalType": "uint256",
              "name": "createdAt",
              "type": "uint256"
            },
            {
              "internalType": "address",
              "name": "onwer",
              "type": "address"
            }
          ],
          "internalType": "struct Poll.PollAnswer",
          "name": "",
          "type": "tuple"
        }
      ],
      "stateMutability": "nonpayable",
      "type": "function"
    },
    {
      "inputs": [
        {
          "internalType": "uint256",
          "name": "id",
          "type": "uint256"
        },
        {
          "internalType": "uint256",
          "name": "key",
          "type": "uint256"
        }
      ],
      "name": "getPollAnswerKey",
      "outputs": [
        {
          "internalType": "string",
          "name": "",
          "type": "string"
        }
      ],
      "stateMutability": "view",
      "type": "function",
      "constant": true
    },
    {
      "inputs": [
        {
          "internalType": "uint256",
          "name": "id",
          "type": "uint256"
        }
      ],
      "name": "getPollAnswerKeyLength",
      "outputs": [
        {
          "internalType": "uint256",
          "name": "",
          "type": "uint256"
        }
      ],
      "stateMutability": "view",
      "type": "function",
      "constant": true
    },
    {
      "inputs": [
        {
          "internalType": "uint256",
          "name": "id",
          "type": "uint256"
        },
        {
          "internalType": "uint256",
          "name": "key",
          "type": "uint256"
        }
      ],
      "name": "getPollAnwser",
      "outputs": [
        {
          "components": [
            {
              "internalType": "string",
              "name": "id",
              "type": "string"
            },
            {
              "internalType": "string",
              "name": "name",
              "type": "string"
            }
          ],
          "internalType": "struct Poll.Answer",
          "name": "",
          "type": "tuple"
        }
      ],
      "stateMutability": "view",
      "type": "function",
      "constant": true
    },
    {
      "inputs": [
        {
          "internalType": "uint256",
          "name": "_pollId",
          "type": "uint256"
        }
      ],
      "name": "getUserAnswerKey",
      "outputs": [
        {
          "internalType": "uint256",
          "name": "",
          "type": "uint256"
        }
      ],
      "stateMutability": "view",
      "type": "function",
      "constant": true
    },
    {
      "inputs": [
        {
          "internalType": "uint256",
          "name": "_pollId",
          "type": "uint256"
        }
      ],
      "name": "getPollUserAnswerKeyLength",
      "outputs": [
        {
          "internalType": "uint256",
          "name": "",
          "type": "uint256"
        }
      ],
      "stateMutability": "view",
      "type": "function",
      "constant": true
    },
    {
      "inputs": [
        {
          "internalType": "uint256",
          "name": "index",
          "type": "uint256"
        }
      ],
      "name": "getUserPollKeyFromIndex",
      "outputs": [
        {
          "internalType": "uint256",
          "name": "",
          "type": "uint256"
        }
      ],
      "stateMutability": "view",
      "type": "function",
      "constant": true
    },
    {
      "inputs": [
        {
          "internalType": "uint256",
          "name": "index",
          "type": "uint256"
        }
      ],
      "name": "getUserAnswerFromIndex",
      "outputs": [
        {
          "components": [
            {
              "internalType": "uint256",
              "name": "id",
              "type": "uint256"
            },
            {
              "internalType": "uint256",
              "name": "pollId",
              "type": "uint256"
            },
            {
              "internalType": "string",
              "name": "answerId",
              "type": "string"
            },
            {
              "internalType": "uint256",
              "name": "createdAt",
              "type": "uint256"
            },
            {
              "internalType": "address",
              "name": "onwer",
              "type": "address"
            }
          ],
          "internalType": "struct Poll.PollAnswer",
          "name": "",
          "type": "tuple"
        }
      ],
      "stateMutability": "view",
      "type": "function",
      "constant": true
    },
    {
      "inputs": [],
      "name": "getUserPollKeyLength",
      "outputs": [
        {
          "internalType": "uint256",
          "name": "",
          "type": "uint256"
        }
      ],
      "stateMutability": "view",
      "type": "function",
      "constant": true
    },
    {
      "inputs": [],
      "name": "getUserAnswerKeyLength",
      "outputs": [
        {
          "internalType": "uint256",
          "name": "",
          "type": "uint256"
        }
      ],
      "stateMutability": "view",
      "type": "function",
      "constant": true
    },
    {
      "inputs": [
        {
          "internalType": "uint256",
          "name": "id",
          "type": "uint256"
        },
        {
          "internalType": "uint256",
          "name": "key",
          "type": "uint256"
        }
      ],
      "name": "getPollUserAnswer",
      "outputs": [
        {
          "components": [
            {
              "internalType": "uint256",
              "name": "id",
              "type": "uint256"
            },
            {
              "internalType": "uint256",
              "name": "pollId",
              "type": "uint256"
            },
            {
              "internalType": "string",
              "name": "answerId",
              "type": "string"
            },
            {
              "internalType": "uint256",
              "name": "createdAt",
              "type": "uint256"
            },
            {
              "internalType": "address",
              "name": "onwer",
              "type": "address"
            }
          ],
          "internalType": "struct Poll.PollAnswer",
          "name": "",
          "type": "tuple"
        }
      ],
      "stateMutability": "view",
      "type": "function",
      "constant": true
    }
  ],
  "bytecode": "0x608060405260008055600060015534801561001957600080fd5b5061139c806100296000396000f3fe608060405234801561001057600080fd5b50600436106101165760003560e01c80639b48cbd0116100a2578063d31bdf6c11610071578063d31bdf6c14610247578063d49152011461025a578063d5a52f311461026d578063de80957714610280578063f098e2781461029357610116565b80639b48cbd0146101d9578063ac2f0074146101ec578063c07da20514610210578063cca36b8a1461023457610116565b8063277c396f116100e9578063277c396f146101765780633d5e99921461017e578063711a119e1461019e578063767e600c146101b15780639207891d146101d157610116565b806303010db61461011b57806317666fdb146101395780631dc8c94a146101595780631f9c563414610161575b600080fd5b6101236102a6565b6040516101309190611257565b60405180910390f35b61014c610147366004611087565b6102ba565b6040516101309190611200565b610123610483565b61017461016f366004610f97565b610489565b005b61012361067a565b61019161018c3660046110cc565b61068d565b60405161013091906111be565b6101236101ac36600461106f565b61081c565b6101c46101bf3660046110cc565b610831565b60405161013091906111a4565b6101236108ed565b6101236101e7366004610f61565b6108f3565b6101ff6101fa36600461106f565b610921565b604051610130959493929190611260565b61022361021e36600461106f565b610a6e565b6040516101309594939291906112ae565b610123610242366004610f61565b610b2d565b61012361025536600461106f565b610b46565b61012361026836600461106f565b610b66565b61012361027b36600461106f565b610b7b565b61014c61028e36600461106f565b610ba8565b61014c6102a13660046110cc565b610cce565b336000908152600360205260409020545b90565b6102c2610d9e565b6001805481018082556040805160a0810182528281526020808201888152828401888152426060850152336080850152600095865260058352939094208251815593519484019490945590518051919361032492600285019290910190610dd6565b5060608201516003820155608090910151600491820180546001600160a01b0319166001600160a01b039092169190911790556001805460008681526002602081815260408084203380865260068201845282862087905590880180548089018255908652838620019590955593835294855282822084548154808701835591845286842090910155835482526005855290829020825160a081018452815481528185015481870152818301805485516101009782161597909702600019011693909304601f81018790048702860187018552808652909591949386019392918301828280156104555780601f1061042a57610100808354040283529160200191610455565b820191906000526020600020905b81548152906001019060200180831161043857829003601f168201915b5050509183525050600382015460208201526004909101546001600160a01b03166040909101529392505050565b60015481565b60008054600101808255815260026020818152604090922084516104b593919092019190850190610dd6565b5060008054815260026020908152604090912084516104dc92600190920191860190610dd6565b506000805481526002602052604080822060080180546001600160a01b0319163317905581548252808220426007909101558154808352908220555b815181101561061657600260008054815260200190815260200160002060030182828151811061054457fe5b60209081029190910181015151825460018101845560009384529282902081516105779491909101929190910190610dd6565b5081818151811061058457fe5b602002602001015160026000805481526020019081526020016000206005018383815181106105af57fe5b6020026020010151600001516040516105c89190611119565b908152602001604051809103902060008201518160000190805190602001906105f2929190610dd6565b50602082810151805161060b9260018501920190610dd6565b505050600101610518565b50336000908152600360209081526040808320835481546001810183559185529284200191909155905490517fab0309b6731a34e8750174d3c2c9591a34a2bf0c1425a30b34122be08d0507399161066d91611257565b60405180910390a1505050565b3360009081526004602052604090205490565b610695610e54565b6000838152600260205260409020600381018054600590920191849081106106b957fe5b906000526020600020016040516106d09190611135565b9081526040805160209281900383018120805460026001821615610100026000190190911604601f81018590049094028201606090810184529282018481529193909284929184918401828280156107695780601f1061073e57610100808354040283529160200191610769565b820191906000526020600020905b81548152906001019060200180831161074c57829003601f168201915b50505050508152602001600182018054600181600116156101000203166002900480601f01602080910402602001604051908101604052809291908181526020018280546001816001161561010002031660029004801561080b5780601f106107e05761010080835404028352916020019161080b565b820191906000526020600020905b8154815290600101906020018083116107ee57829003601f168201915b505050505081525050905092915050565b60009081526002602052604090206003015490565b60008281526002602052604090206003018054606091908390811061085257fe5b600091825260209182902001805460408051601f60026000196101006001871615020190941693909304928301859004850281018501909152818152928301828280156108e05780601f106108b5576101008083540402835291602001916108e0565b820191906000526020600020905b8154815290600101906020018083116108c357829003601f168201915b5050505050905092915050565b60005481565b6003602052816000526040600020818154811061090c57fe5b90600052602060002001600091509150505481565b60026020818152600092835260409283902080546001808301805487519281161561010002600019011695909504601f81018590048502820185019096528581529094919390929091908301828280156109bc5780601f10610991576101008083540402835291602001916109bc565b820191906000526020600020905b81548152906001019060200180831161099f57829003601f168201915b50505060028085018054604080516020601f6000196101006001871615020190941695909504928301859004850281018501909152818152959695945090925090830182828015610a4e5780601f10610a2357610100808354040283529160200191610a4e565b820191906000526020600020905b815481529060010190602001808311610a3157829003601f168201915b5050505060078301546008909301549192916001600160a01b0316905085565b60056020908152600091825260409182902080546001808301546002808501805488519481161561010002600019011691909104601f810187900487028401870190975286835292959094919291830182828015610b0d5780601f10610ae257610100808354040283529160200191610b0d565b820191906000526020600020905b815481529060010190602001808311610af057829003601f168201915b5050505060038301546004909301549192916001600160a01b0316905085565b6004602052816000526040600020818154811061090c57fe5b600090815260026020908152604080832033845260060190915290205490565b60009081526002602052604090206004015490565b336000908152600360205260408120805483908110610b9657fe5b90600052602060002001549050919050565b610bb0610d9e565b3360009081526004602052604081208054600592919085908110610bd057fe5b906000526020600020015481526020019081526020016000206040518060a00160405290816000820154815260200160018201548152602001600282018054600181600116156101000203166002900480601f016020809104026020016040519081016040528092919081815260200182805460018160011615610100020316600290048015610ca15780601f10610c7657610100808354040283529160200191610ca1565b820191906000526020600020905b815481529060010190602001808311610c8457829003601f168201915b5050509183525050600382015460208201526004909101546001600160a01b031660409091015292915050565b610cd6610d9e565b60008381526002602052604081206004018054600592919085908110610cf857fe5b906000526020600020015481526020019081526020016000206040518060a00160405290816000820154815260200160018201548152602001600282018054600181600116156101000203166002900480601f0160208091040260200160405190810160405280929190818152602001828054600181600116156101000203166002900480156104555780601f1061042a57610100808354040283529160200191610455565b6040518060a001604052806000815260200160008152602001606081526020016000815260200160006001600160a01b031681525090565b828054600181600116156101000203166002900490600052602060002090601f016020900481019282601f10610e1757805160ff1916838001178555610e44565b82800160010185558215610e44579182015b82811115610e44578251825591602001919060010190610e29565b50610e50929150610e6e565b5090565b604051806040016040528060608152602001606081525090565b6102b791905b80821115610e505760008155600101610e74565b600082601f830112610e98578081fd5b813567ffffffffffffffff811115610eae578182fd5b610ec1601f8201601f19166020016112ef565b9150808252836020828501011115610ed857600080fd5b8060208401602084013760009082016020015292915050565b600060408284031215610f02578081fd5b610f0c60406112ef565b9050813567ffffffffffffffff80821115610f2657600080fd5b610f3285838601610e88565b83526020840135915080821115610f4857600080fd5b50610f5584828501610e88565b60208301525092915050565b60008060408385031215610f73578182fd5b82356001600160a01b0381168114610f89578283fd5b946020939093013593505050565b600080600060608486031215610fab578081fd5b833567ffffffffffffffff80821115610fc2578283fd5b610fce87838801610e88565b9450602091508186013581811115610fe4578384fd5b610ff088828901610e88565b945050604086013581811115611004578384fd5b86019050601f81018713611016578283fd5b803561102961102482611316565b6112ef565b81815283810190838501865b8481101561105e5761104c8c888435890101610ef1565b84529286019290860190600101611035565b505080955050505050509250925092565b600060208284031215611080578081fd5b5035919050565b60008060408385031215611099578182fd5b82359150602083013567ffffffffffffffff8111156110b6578182fd5b6110c285828601610e88565b9150509250929050565b600080604083850312156110de578182fd5b50508035926020909101359150565b60008151808452611105816020860160208601611336565b601f01601f19169290920160200192915050565b6000825161112b818460208701611336565b9190910192915050565b60008083546001811660008114611153576001811461116a5761119a565b60ff198216855260028204607f168501925061119a565b6002820486855260208520855b8281101561119357815488820152600190910190602001611177565b5050850192505b5090949350505050565b6000602082526111b760208301846110ed565b9392505050565b6000602082528251604060208401526111da60608401826110ed565b6020850151848203601f1901604086015291506111f781836110ed565b95945050505050565b6000602082528251602083015260208301516040830152604083015160a0606084015261123060c08401826110ed565b6060850151608085015260018060a01b0360808601511660a0850152809250505092915050565b90815260200190565b600086825260a0602083015261127960a08301876110ed565b828103604084015261128b81876110ed565b606084019590955250506001600160a01b03919091166080909101529392505050565b600086825285602083015260a060408301526112cd60a08301866110ed565b6060830194909452506001600160a01b03919091166080909101529392505050565b60405181810167ffffffffffffffff8111828210171561130e57600080fd5b604052919050565b600067ffffffffffffffff82111561132c578081fd5b5060209081020190565b60005b83811015611351578181015183820152602001611339565b83811115611360576000848401525b5050505056fea26469706673582212202e4797fe252272553b2a968e943f4f0c7bfa4e15dcb00541f0cc483fe1ddc6ad64736f6c63430006000033",
  "source": "pragma solidity >=0.6.0 <0.9.0;\npragma experimental ABIEncoderV2;\n\ncontract Poll {\n    uint256 public pollCount = 0;\n    uint256 public pollAnswerCount = 0;\n\n    struct Answer {\n        string id;\n        string name;\n    }\n    struct PollData {\n        uint256 id;\n        string title;\n        string desc;\n        string[] answerKeys;\n        uint256[] userAnswerKeys;\n        mapping(string => Answer) answers;\n        mapping(address => uint256) userAnswer;\n        uint256 createdAt;\n        address onwer;\n    }\n    struct PollAnswer {\n        uint256 id;\n        uint256 pollId;\n        string answerId;\n        uint256 createdAt;\n        address onwer;\n    }\n    mapping(uint256 => PollData) public polls;\n    mapping(address => uint256[]) public userPollKeys;\n    mapping(address => uint256[]) public userAnswerKeys;\n    mapping(uint256 => PollAnswer) public pollAnswers;\n    event PollCreated(uint256 id);\n\n    function createPoll(\n        string memory _title,\n        string memory _desc,\n        Answer[] memory _answer\n    ) public {\n        pollCount++;\n        polls[pollCount].desc = _desc;\n        polls[pollCount].title = _title;\n        polls[pollCount].onwer = msg.sender;\n        polls[pollCount].createdAt = block.timestamp;\n        polls[pollCount].id = pollCount;\n        for (uint256 i = 0; i < _answer.length; i++) {\n            polls[pollCount].answerKeys.push(_answer[i].id);\n            polls[pollCount].answers[_answer[i].id] = _answer[i];\n        }\n        userPollKeys[msg.sender].push(pollCount);\n        emit PollCreated(pollCount);\n\n        // emit TaskCreated(taskCount, _message, false);\n    }\n\n    function createVote(uint256 _pollId, string memory _voteId)\n        public\n        returns (PollAnswer memory)\n    {\n        pollAnswerCount++;\n        pollAnswers[pollAnswerCount] = PollAnswer(\n            pollAnswerCount,\n            _pollId,\n            _voteId,\n            block.timestamp,\n            msg.sender\n        );\n        polls[_pollId].userAnswer[msg.sender] = pollAnswerCount;\n        polls[_pollId].userAnswerKeys.push(pollAnswerCount);\n        userAnswerKeys[msg.sender].push(pollAnswerCount);\n        return pollAnswers[pollAnswerCount];\n        // emit TaskCreated(taskCount, _message, false);\n    }\n\n    function getPollAnswerKey(uint256 id, uint256 key)\n        public\n        view\n        returns (string memory)\n    {\n        return polls[id].answerKeys[key];\n    }\n\n    function getPollAnswerKeyLength(uint256 id) public view returns (uint256) {\n        return polls[id].answerKeys.length;\n    }\n\n    function getPollAnwser(uint256 id, uint256 key)\n        public\n        view\n        returns (Answer memory)\n    {\n        return polls[id].answers[polls[id].answerKeys[key]];\n    }\n\n    function getUserAnswerKey(uint256 _pollId) public view returns (uint256) {\n        return polls[_pollId].userAnswer[msg.sender];\n    }\n\n    function getPollUserAnswerKeyLength(uint256 _pollId)\n        public\n        view\n        returns (uint256)\n    {\n        return polls[_pollId].userAnswerKeys.length;\n    }\n\n    function getUserPollKeyFromIndex(uint256 index)\n        public\n        view\n        returns (uint256)\n    {\n        return userPollKeys[msg.sender][index];\n    }\n\n    function getUserAnswerFromIndex(uint256 index)\n        public\n        view\n        returns (PollAnswer memory)\n    {\n        return pollAnswers[userAnswerKeys[msg.sender][index]];\n    }\n\n    function getUserPollKeyLength() public view returns (uint256) {\n        return userPollKeys[msg.sender].length;\n    }\n\n    function getUserAnswerKeyLength() public view returns (uint256) {\n        return userAnswerKeys[msg.sender].length;\n    }\n\n    function getPollUserAnswer(uint256 id, uint256 key)\n        public\n        view\n        returns (PollAnswer memory)\n    {\n        return pollAnswers[polls[id].userAnswerKeys[key]];\n    }\n}\n",
  "sourcePath": "F:\\blockchain-2022\\eth-todo-list\\contracts\\Poll.sol",
  "compiler": {
    "name": "solc",
    "version": "0.6.0+commit.26b70077.Emscripten.clang"
  },
  "schemaVersion": "3.4.7",
  "updatedAt": "2022-05-11T14:07:43.673Z",
  "networkType": "ethereum",
  "devdoc": {
    "methods": {}
  },
  "userdoc": {
    "methods": {}
  }
}